:020000040800F2
:10000000C0120020AD01000871280008112200086C
:100010006D280008D9040008C13100080000000064
:10002000000000000000000000000000752800082B
:10003000DD0400080000000073280008772800088D
:10004000C7010008C7010008C7010008C701000870
:10005000C7010008C7010008C7010008C701000860
:10006000C7010008C7010008C7010008C701000850
:10007000C7010008C7010008C7010008C701000840
:10008000C7010008C7010008C70100080000000000
:10009000000000000000000000000000C701000890
:1000A000C7010008C7010008C70100086929000846
:1000B000C701000879290008C7010008C701000826
:1000C000C7010008C7010008C7010008C7010008F0
:1000D000C7010008C7010008C701000800000000B0
:1000E000C7010008C7010008C701000800000000A0
:1000F000000000000000000000000000C701000830
:1001000000000000C7010008C7010008C70100087F
:1001100000000000000000000000000000000000DF
:10012000C7010008C7010008C7010008C70100088F
:10013000C7010008000000000000000000000000EF
:10014000000000000000000000000000C7010008DF
:10015000C7010008C7010008C7010008C70100085F
:10016000C7010008C70100080000000000000000EF
:10017000000000000000000000000000000000007F
:1001800000000000C701000800000000000000009F
:10019000C7010008C7010008DFF80CD000F08AF999
:1001A000004800471D350008C0120020064880475F
:1001B00006480047FEE7FEE7FEE7FEE7FEE7FEE74C
:1001C000FEE7FEE7FEE7FEE74D290008990100087B
:1001D0002DE9F05F0546002092469B46884606467C
:1001E000814640241BE0284641464746224600F00F
:1001F000F4F853465A46C01A914110D31146184696
:10020000224600F0DBF82D1A67EB01084F46224624
:100210000120002100F0D2F817EB00094E41201E0A
:10022000A4F10104DFDC484631462A464346BDE8D6
:10023000F09FD2B201E000F8012B491EFBD27047BB
:100240000022F6E710B513460A4604461946FFF7A2
:10025000F0FF204610BD2DE9FE4F81EA030404F0B3
:10026000004421F0004100944FF0000B23F00043C4
:1002700050EA01045ED052EA03045BD0C3F30A548F
:10028000C1F30A552C44A4F2F3340194A0FB0254A8
:10029000C1F3130141F48011C3F3130343F480133A
:1002A00001FB024400FB034E840A970A44EA81548E
:1002B00047EA8357A4FB076802958D0A05FB07856B
:1002C0004FEA932C04FB0C542705029D4FEA065875
:1002D00047EA1637B5EB08056EEB070C870E920E52
:1002E00047EA811742EA8312A7FB0201B6EB0B0132
:1002F00064EB00042B0D43EA0C335E1844EB1C50F6
:10030000DA465146E7FB0201C5F313044FEA0B330B
:1003100043EA14534FEA0432019C43EA0603A4F172
:100320000C040294009CCDE900B400F075F803B011
:10033000BDE8F08F00200146F9E70EB5C10F80EA55
:10034000E0700844CA07002140F233438DE80E00F4
:100350000A460B4600F060F803B000BD30B5041E3D
:1003600071F1000404DB4FF00044404264EB0101F2
:10037000141E73F1000405DB1C464FF0004352428B
:1003800063EB04038B4208BF824230BD30B5041ECC
:1003900071F1000404DB4FF00044404264EB0101C2
:1003A000141E73F1000405DB1C464FF0004352425B
:1003B00063EB0403994208BF904230BD202A04DB5E
:1003C000203A00FA02F1002070479140C2F1200368
:1003D00020FA03F3194390407047202A04DB203AA7
:1003E00021FA02F00021704721FA02F3D040C2F155
:1003F0002002914008431946704710B5141E73F14E
:10040000000408DA401C41F1000192185B411A43D4
:1004100001D120F0010010BD2DE9F04D92469B4620
:1004200011B1B1FA81F202E0B0FA80F220329046C6
:10043000FFF7C4FF04460F4640EA0A0041EA0B01F9
:1004400053465A46084313D0114653EA010019D0C7
:10045000C8F140025046FFF7C0FF05460E46504621
:1004600059464246FFF7AAFF084305D0012004E0A1
:1004700020463946BDE8F08D0020054346EAE07687
:100480002C4337430A986305E40AA0EB08000022D6
:10049000FD0A44EA47540A3002D500200146E9E744
:1004A000010510196941DDE9084500196941BDE8F8
:1004B000F04DA2E7064C074D06E0E06840F001036E
:1004C00094E8070098471034AC42F6D3FFF768FE73
:1004D0002C3800084C38000800BFFEE77047704712
:1004E00070B5044600F000F906462546681C10B1B8
:1004F00004480078054400BF00F0F6F8801BA842CD
:10050000FAD370BDE0000020F8B503460A46002586
:10051000002400200021CDE0012606FA01F516682E
:1005200006EA0504AC4273D15668012E08D056681D
:10053000022E05D05668112E02D05668122E13D105
:1005400098684F000326BE40B0434F00D668BE40B7
:1005500030439860586801268E40B0431679C6F340
:1005600000168E4030435860D8684F000326BE40C6
:10057000B0434F009668BE403043D8605668022EA4
:1005800002D05668122E13D1CF0803F1200656F878
:1005900027004E07F70E0F26BE40B0434F07FF0E51
:1005A0001669BE403043CF0803F1200646F8270005
:1005B00018684F000326BE40B043167906F00306C4
:1005C0004F00BE4030431860566806F08056B6F1C2
:1005D000805F6ED100BF00260096384E366846F424
:1005E0008046364F3E603E46366806F480460096AA
:1005F00000BF00BF324E8F0856F827008E07370F16
:100600000F26BE40B0432F4EB34202D1002615E064
:100610004FE02D4EB34201D101260FE02B4EB342E5
:1006200001D102260AE02A4EB34201D1032605E099
:10063000284EB34201D1042600E007268F073F0F62
:10064000BE4030431E4E8F0846F82700224E3068C9
:10065000A043566806F48036B6F5803F00D12043AB
:100660001D4E3060361D3068A043566806F40036D3
:10067000B6F5003F00D12043174E361D3060361DC1
:100680003068A043566806F48016B6F5801F00D186
:100690002043114E08363060361D3068A04356683E
:1006A00006F40016B6F5001F00D120430A4E0C36A2
:1006B0003060491C1029FFF42FAFF8BD44380240C8
:1006C00008380140000002400004024000080240D7
:1006D000000C024000100240003C01400AB1816160
:1006E00001E00B0483617047014800687047000017
:1006F000D8000020034800680349097808440149EC
:1007000008607047D8000020E000002010B50D48B8
:10071000006840F400700B4908600846006840F427
:10072000806008600846006840F48070086003201C
:1007300000F0A2F8002000F007F800F02BF80020ED
:1007400010BD0000003C024070B504460E48007821
:100750004FF47A71B1FBF0F00C490968B1FBF0F588
:10076000284600F0FDFC08B1012070BD102C07D216
:1007700000222146501E00F041F80548046001E0C7
:100780000120F2E70020F0E7E0000020E400002074
:10079000DC00002008B500BF002000900E48006873
:1007A00040F480400C4908600846006800F480402E
:1007B000009000BF00BF00BF00200090081F00682D
:1007C00040F08050091F08600846006800F0805023
:1007D000009000BF00BF08BD4438024001460846F3
:1007E000002809DB00F01F0301229A4043099B0007
:1007F00003F1E023C3F8002100BF70472DE9F05F4B
:1008000080460D461646002702F0ECFC07463946A6
:100810002A46334601F00700C0F1070ABAF1040F77
:1008200002D94FF0040A01E0C0F1070AD14600F1F5
:10083000040ABAF1070F02D24FF0000A01E0A0F15A
:10084000030AD4464FF0010A0AFA09FAAAF1010A8A
:100850000AEA020A0AFA0CFA4FF0010B0BFA0CFB37
:10086000ABF1010B0BEA030B4AEA0B0421464046AD
:1008700002F0C0FCBDE8F09F00BF00F00702064B8D
:1008800019684FF6FF031940044B0B4343EA02215A
:10089000014B196000BF70470CED00E00000FA0545
:1008A000F8B5044600250026207800F0010020B9A4
:1008B000207800F00400042831D1002060498866C7
:1008C000FFF712FF054606E0FFF70EFF401B022868
:1008D00001D90320F8BD5B480068C0F3C060002860
:1008E000F2D1D4E9011041EA8011207B41EA007085
:1008F000544984310860012051498866FFF7F4FEAD
:10090000054606E0FFF7F0FE401B022801D9032050
:10091000E0E74C480068C0F3C0600028F2D02078BF
:1009200000F0020002287DD100BF00200090454861
:100930004030006840F0805042494031086008462D
:10094000006800F08050009000BF00BF3E48006883
:1009500040F480703C490860FFF7C6FE054606E09B
:10096000FFF7C2FE401B022801D90320B2E7364838
:10097000006800F480700028F2D0324870300068BF
:1009800000F440764EB3208A00F44070B04224D088
:100990002C487030006820F4407601202B49086014
:1009A00000200860274870300660006800F00100F1
:1009B00098B1FFF799FE054608E0FFF795FE401B4A
:1009C00041F28831884201D9032083E71D48703005
:1009D0000068C0F340000028EFD000BF208A00F478
:1009E0004070B0F5407F0CD116480830006820F404
:1009F000F810174A2169114008431249083108606C
:100A000007E010480830006820F4F8100D4908315C
:100A100008600C4870300068218AC1F30B0108435C
:100A2000084900E002E07031086000BF207800F063
:100A30000800082802D1207D06490860002049E707
:100A4000000047420038024000700040400E47421C
:100A5000FFFCFF0FE011474270B504460D460CB98C
:100A6000012070BD5848006800F00F00A84209D26C
:100A700055490D700846006800F00F00A84201D0EB
:100A80000120EEE7207800F0020002281DD1207836
:100A900000F00400042805D14C48006840F4E05000
:100AA0004A490860207800F00800082805D1474826
:100AB000006840F46040454908604448006820F000
:100AC000F000A168084341490860207800F0010067
:100AD000A8B36068012807D13C4808380068C0F313
:100AE0004040B8B90120BCE76068022802D06068C5
:100AF000032807D1354808380068C0F3406048B97A
:100B00000120AEE7314808380068C0F3400008B95A
:100B10000120A6E72D48006820F003006168084323
:100B20002A490860FFF7E0FD064609E0FFF7DCFD13
:100B3000801B41F28831884202D9032091E707E007
:100B40002248006800F00C006168B0EB810FEDD125
:100B50001D48006800F00F00A84209D91A490D701D
:100B60000846006800F00F00A84201D0012078E795
:100B7000207800F00400042807D11448006820F40D
:100B8000E050E168084311490860207800F008004F
:100B9000082808D10D48006820F46040216940EA27
:100BA000C1000A49086000F03FF808490968C1F32C
:100BB0000311074A515CC8400649086006480068AE
:100BC000FFF7C2FD00204CE7003C0240083802401D
:100BD00014380008E4000020DC0000200148006810
:100BE00070470000E400002000B5FFF7F7FF04495C
:100BF0000968C1F38221034A515CC84000BD00006E
:100C0000083802402438000800B5FFF7E7FF044920
:100C10000968C1F34231034A515CC84000BD00007D
:100C200008380240243800082DE9F0470024002548
:100C30000026A1462548006800F00C0020B10428D9
:100C400005D008283AD105E0DFF8849039E0DFF8D4
:100C5000849036E01D48001F006800F03F041B48E8
:100C6000001F006800F4800078B11A481749091F76
:100C70000968C1F38811A0FB0170014622460023D8
:100C80003846FFF7A5FA05460EE011480F49091F3F
:100C90000968C1F38811A0FB0170014622460023B8
:100CA0003846FFF795FA05460848001F0068C0F36C
:100CB0000140401C4600B5FBF6F902E0DFF8109059
:100CC00000BF00BF4846BDE8F0870000083802407A
:100CD0000024F40040787D01F8B504460CB90120E9
:100CE000F8BD207800F00100002874D0F9480068B1
:100CF00000F00C0004280DD0F648006800F00C004D
:100D0000082813D1F348001F006800F48000B0F5F4
:100D1000800F0BD1EF4808380068C0F3404000282E
:100D200059D06068002856D10120D9E700BF60681B
:100D3000B0F5803F08D1E7480838006840F48030BB
:100D4000E449083908601EE06068B0F5A02F0DD1B5
:100D5000E0480838006840F48020DE49083908601F
:100D60000846006840F4803008600CE0D948083834
:100D7000006820F48030D7490839086008460068C8
:100D800020F48020086000BF606890B1FFF7ACFCE1
:100D9000054606E0FFF7A8FC401B642801D90320A4
:100DA0009EE7CC4808380068C0F340400028F1D0E6
:100DB00011E0FFF799FC054606E0FFF795FC401BA4
:100DC000642801D903208BE7C24808380068C0F3C3
:100DD00040400028F1D1207800F0020002285FD1C5
:100DE000BC48006800F00C0058B1BA48006800F038
:100DF0000C0008281CD1B748001F006800F48000D0
:100E0000B0B9B44808380068C0F3400020B1E068C9
:100E1000012801D0012063E7AE480838006820F0BF
:100E2000F800216940EAC100AA490839086037E0A2
:100E3000E06800B30120A8490860FFF755FC0546AB
:100E400006E0FFF751FC401B022801D9032047E7C9
:100E5000A04808380068C0F340000028F1D09D4841
:100E60000838006820F0F800216940EAC10099497B
:100E70000839086014E0002097490860FFF734FC47
:100E8000054606E0FFF730FC401B022801D903208D
:100E900026E7904808380068C0F340000028F1D1E8
:100EA000207800F0080008282CD16069A8B1012042
:100EB0008A490860FFF718FC054606E0FFF714FCB6
:100EC000401B022801D903200AE782486C300068E1
:100ED000C0F340000028F1D014E000207F490860F2
:100EE000FFF702FC054606E0FFF7FEFB401B022869
:100EF00001D90320F4E677486C300068C0F3400065
:100F00000028F1D1207800F00400042870D10027D7
:100F100070483830006800F0805090B900BF002061
:100F200000906C483830006840F080506949383192
:100F300008600846006800F08050009000BF00BFC5
:100F400001276748006800F48070B0B96448006801
:100F500040F4807062490860FFF7C6FB054606E072
:100F6000FFF7C2FB401B022801D90320B8E65C480A
:100F7000006800F480700028F2D000BFA06801284B
:100F800008D154486830006840F001005149683188
:100F900008601DE0A06805280DD14E486830006843
:100FA00040F004004B49683108600846006840F092
:100FB000010008600CE047486830006820F001003C
:100FC0004449683108600846006820F00400086061
:100FD00000BFA068A8B1FFF787FB054609E0FFF74F
:100FE00083FB401B41F28831884202D9032077E617
:100FF00026E0384868300068C0F340000028EED092
:1010000013E0FFF771FB054608E0FFF76DFB401B9F
:1010100041F28831884201D9032061E62D486830C9
:101020000068C0F340000028EFD1012F07D1294804
:101030003830006820F0805026493831086000BF01
:10104000A069002845D02348006800F00C0008285B
:101050005DD0A069022845D100201F490866FFF72E
:1010600043FB054606E0FFF73FFB401B022801D982
:10107000032035E6174808380068C0F340600028B0
:10108000F1D1D4E907010843616A40EA81110122E4
:10109000A06AC2EB500041EA00412C20005D41EA09
:1010A00000600C49091F086001200B490866FFF722
:1010B0001BFB054606E0FFF717FB401B022801D982
:1010C00003200DE6034808380068C0F3406000289C
:1010D000F1D03FE00838024000004742800E47420E
:1010E0000070004000201C490866FFF7FDFA054625
:1010F00006E0FFF7F9FA401B022801D90320EFE5CB
:1011000016480068C0F340600028F2D122E0A069D0
:10111000012800D1E4E51148001D066806F48001AD
:10112000E069814214D106F03F01206A81420FD16B
:1011300047F6C0703040616A884209D106F44031F8
:10114000A06A814204D106F07061E06A814201D058
:101150000120C5E50020C3E50000474200380240F9
:1011600070B504462546681EB0F1807F01D301208A
:101170000FE0681E4FF0E02148610F214FF0FF3073
:1011800002F038F800204FF0E02188610720086164
:10119000002070BD7047704710B50346002200BFA5
:1011A00093F83C00012801D1022010BD012083F8F2
:1011B0003C0000BF22F0FF00CC6840EA040222F4A9
:1011C00040708C6840EA040222F480604C6840EA77
:1011D000040222F400600C6840EA040222F4805009
:1011E0000C6940EA040222F400504C6940EA04020F
:1011F00022F48040CC6940EA04021868426400BFCF
:10120000002083F83C0000BF00BFCEE730B50246A7
:101210000B4600BF92F83C00012801D1022030BDEE
:10122000012082F83C0000BF022082F83D001068D7
:1012300044681068816824F07004186804431068DA
:101240004460144D1068A84213D01068B0F1804F6C
:101250000FD0114D1068A8420BD0104D1068A84255
:1012600007D00F4D1068A84203D00E4D1068A84259
:1012700005D121F080015868014310688160012088
:1012800082F83D0000BF002082F83C0000BF00BF94
:10129000C5E70000000001400004004000080040D5
:1012A000000C00400040014010B504460CB901207C
:1012B00010BD94F83D0028B9002084F83C00204679
:1012C00000F00CF8022084F83D00211D206801F098
:1012D0005BFB012084F83D000020E9E710B586B0F3
:1012E0000446142101A8FEF7ABFF6D49206888422F
:1012F00018D100BF002000906A48006840F001004B
:10130000684908600846006800F00100009000BFCE
:1013100000BF002211461B20FFF770FA1B20FFF7C9
:101320005DFABAE060492068884239D100BF0020E8
:1013300000905C48001F006840F002005949091FF6
:1013400008600846006800F00200009000BF00BF7F
:1013500000BF0020009053481438006840F002009D
:101360005049143908600846006800F002000090F7
:1013700000BF00BF122001900220029000200390C5
:1013800004900220059001A94848FFF7BDF800220B
:1013900011461D20FFF732FA1D20FFF71FFA7CE0EF
:1013A00043492068884231D100BF002000903D4869
:1013B000001F006840F008003A49091F086008460D
:1013C000006800F00800009000BF00BF00BF0020D0
:1013D000009034481438006840F001003149143955
:1013E00008600846006800F00100009000BF00BFE0
:1013F000052001900220029000200390049002201A
:10140000059001A92B48FFF77FF846E02A4920689C
:1014100088420FD100BF002000902248006840F4AD
:101420000030204908600846006800F40030009051
:1014300000BF32E02149206888422ED100BF002041
:1014400000901848006840F480201649086008465B
:10145000006800F48020009000BF00BF00BF0020A3
:10146000009010481438006840F002000D4914390B
:1014700008600846006800F00200009000BF00BF4E
:101480004815019002200290002003900490032050
:10149000059001A90548FFF737F806B010BD000018
:1014A00000000140443802400004004000040240B3
:1014B000000C004000000240004401400048014090
:1014C0002DE9F04104460D4600BF94F83C00012888
:1014D00002D10220BDE8F081012084F83C0000BF69
:1014E000022084F83D002068866826F0770626F4FE
:1014F0007F46206886602868502833D00CDC20287E
:1015000050D004DC00284BD0102851D149E03028BD
:1015100049D040284CD139E060282DD0702807D020
:10152000B0F5805F03D0B0F5005F41D10DE040E041
:10153000D5E902136A68206801F089FA2068866894
:1015400046F077062068866033E0D5E902136A68C2
:10155000206801F07CFA2068806840F480402168AF
:10156000886026E0EA686968206801F041FB502144
:10157000206801F077FA1CE0EA686968206801F0E9
:1015800089FB6021206801F06DFA12E0EA68696861
:10159000206801F02DFB4021206801F063FA08E08B
:1015A00000BF00BF00BF2968206801F05BFA00E0BF
:1015B00000BF00BF012084F83D0000BF002084F878
:1015C0003C0000BF00BF85E710B5474A01681268BC
:1015D000914226D1017F0829FBD14449097809BBF2
:1015E0000121424A117042490968424A116000BF14
:1015F0003D490968096A21F420413B4A1268116299
:1016000039490968096A41F40051374A1268116280
:1016100000BF35490968C96841F01001324A1268B3
:10162000D16060E03149097801295CD100212F4A5D
:1016300011702F490968304A116000BF2A490968B2
:10164000096A21F42041284A126811622649096872
:10165000096A254A1268116200BF23490968C968EE
:1016600041F01001204A1268D16023490968214ADB
:101670001268914207D3204909681E4A1268891AE4
:101680001E4A116010E01C4909681A4A126891420A
:101690000AD215490968C96A174A12681144154ADD
:1016A0001268891A154A11601449096844F62062C3
:1016B000914205D90021124A11800121114A11706D
:1016C0000F490988B1F5E17F02DD00210C4A118044
:1016D0000A490A680A490B880988491C084C218074
:1016E000094941F8232010BD6C010020C0000020F2
:1016F00040040040CC000020C8000020D0000020A2
:10170000C2000020C4000020AC0200202DE9F041FE
:1017100004460D46164600BF94F83C00012802D14D
:101720000220BDE8F081012084F83C0000BF0220C7
:1017300084F83D0096B9EB68D5E90012206801F005
:101740006BFA2068806920F00C00216888612068AD
:101750008069A9680843216888613DE0042E13D19F
:10176000EB68D5E90012206801F0A8FA20688069CA
:1017700020F440602168886120688069A96840EA97
:1017800001202168886127E0082E12D1EB68D5E995
:101790000012206801F0AFFA2068C06920F00C0048
:1017A0002168C8612068C069A96808432168C861C8
:1017B00012E0EB68D5E90012206801F0B8FA206861
:1017C000C06920F440602168C8612068C069A968C8
:1017D00040EA01202168C861012084F83D0000BF73
:1017E000002084F83C0000BF00BF9AE710B5044613
:1017F0000CB9012010BD94F83D0028B9002084F8F0
:101800003C00204600F00CF8022084F83D00211D29
:10181000206801F0B9F8012084F83D000020E9E7D4
:10182000704770B504460D4635B1042D0BD0082D18
:1018300010D00C2D1CD114E02068C06840F00200CC
:101840002168C86015E02068C06840F00400216885
:10185000C8600EE02068C06840F008002168C860D9
:1018600007E02068C06840F010002168C86000E010
:1018700000BF00BF01222946206801F0D7F8206888
:10188000806800F00706062E05D02068006840F04A
:10189000010021680860002070BD30B504460D4687
:1018A00035B1042D0BD0082D10D00C2D1CD114E017
:1018B0002068C06820F002002168C86015E0206838
:1018C000C06820F004002168C8600EE02068C0688D
:1018D00020F008002168C86007E02068C06820F098
:1018E00010002168C86000E000BF00BF0022294648
:1018F000206801F09BF800BF2068006A41F21111D6
:10190000084050B92068006A8910084028B920684A
:10191000006820F001002168086000BF002030BD91
:1019200010B5044620680069C0F34000D8B12068B3
:10193000C068C0F34000B0B16FF0020021680861D8
:10194000012020772068806900F0030018B120464C
:10195000FFF73AFE05E0204600F060F9204600F06F
:1019600043FB0020207720680069C0F38000D8B1D5
:101970002068C068C0F38000B0B16FF00400216837
:101980000861022020772068806900F4407018B157
:101990002046FFF719FE05E0204600F03FF92046FB
:1019A00000F022FB0020207720680069C0F3C0000F
:1019B000D8B12068C068C0F3C000B0B16FF00800B3
:1019C00021680861042020772068C06900F00300C6
:1019D00018B12046FFF7F8FD05E0204600F01EF99B
:1019E000204600F001FB0020207720680069C0F34A
:1019F0000010D8B12068C068C0F30010B0B16FF01B
:101A0000100021680861082020772068C06900F470
:101A1000407018B12046FFF7D7FD05E0204600F0E2
:101A2000FDF8204600F0E0FA0020207720680069E9
:101A300000F0010058B12068C06800F0010030B12A
:101A40006FF0010021680861204600F0F5FA206877
:101A50000069C0F3C01058B12068C068C0F3C0105E
:101A600030B16FF08000216808612046FFF792FBDB
:101A700020680069C0F3801058B12068C068C0F3C6
:101A8000801030B16FF0400021680861204600F0FE
:101A9000D4FA20680069C0F3401058B12068C068CB
:101AA000C0F3401030B16FF020002168086120467B
:101AB000FFF771FB10BD000010B586B0044614217D
:101AC00001A8FEF7BDFB2068B0F1804F1DD100BF1B
:101AD000002000902F48006840F001002D49086068
:101AE0000846006800F00100009000BF00BF2A20F7
:101AF00001900220029000200390049001200590A4
:101B000001A92548FEF700FD42E0244920688842EB
:101B10001DD100BF002000901E48006840F0020068
:101B20001C4908600846006800F00200009000BFF1
:101B300000BF4020019002200290002003900490FA
:101B40000220059001A91648FEF7DEFC20E01549A9
:101B5000206888421CD100BF002000900D4800681A
:101B600040F002000B4908600846006800F00200DF
:101B7000009000BF00BF8815019002200290002055
:101B8000039004900320059001A90548FEF7BCFCD2
:101B900006B010BD3038024000000240000800408E
:101BA000000402400044014070B504460E4615464C
:101BB00000BF94F83C00012801D1022070BD012033
:101BC00084F83C0000BF022084F83D0035B1042DAC
:101BD00009D0082D0CD00C2D14D10EE03146206810
:101BE00000F04AFF0FE03146206800F075FF0AE080
:101BF0003146206800F0A4FF05E03146206800F07F
:101C0000D3FF00E000BF00BF012084F83D0000BF0B
:101C1000002084F83C0000BF00BFCFE770B5054648
:101C2000234928680968884241D121480068406AF0
:101C300084B22049088800EBD0714910A0EB410123
:101C400069B91D481B49098830F81100204418491A
:101C50000968086463204FF08041486315E0154926
:101C6000088800EBD0714910A0EB410101290CD18B
:101C700011481049098830F8110020440C490968BE
:101C8000086400204FF0804148630A480088401CE7
:101C900008490880084600881A2808DB00200880C8
:101CA0000C21034800F074F800200449087070BD4E
:101CB000EC000020D40000208E0000200000002056
:101CC00010B504460CB9012010BD94F83D0028B9A8
:101CD000002084F83C00204600F00CF8022084F834
:101CE0003D00211D206800F04FFE012084F83D00DA
:101CF0000020E9E77047000070B504460D4635B195
:101D0000042D0BD0082D10D00C2D1CD114E0206810
:101D1000C06840F002002168C86015E02068C06813
:101D200040F004002168C8600EE02068C06840F000
:101D300008002168C86007E02068C06840F0100013
:101D40002168C86000E000BF00BF0122294620686A
:101D500000F06CFE0D492068884201D1012000E0AE
:101D6000002028B12068406C40F40040216848649D
:101D70002068806800F00706062E05D020680068FD
:101D800040F0010021680860002070BD00000140A3
:101D900030B504460D4635B1042D0BD0082D10D0BA
:101DA0000C2D1CD114E02068C06820F002002168CE
:101DB000C86015E02068C06820F004002168C86091
:101DC0000EE02068C06820F008002168C86007E0C5
:101DD0002068C06820F010002168C86000E000BFE3
:101DE00000BF00222946206800F020FE1749206825
:101DF000884201D1012000E0002090B100BF20689E
:101E0000006A41F21111084050B92068006A891037
:101E1000084028B92068406C20F4004021684864DC
:101E200000BF00BF2068006A41F21111084050B99C
:101E30002068006A8910084028B92068006820F0EE
:101E400001002168086000BF002030BD0000014093
:101E500070B504460D46164600BF94F83C000128B4
:101E600001D1022070BD012084F83C0000BF022097
:101E700084F83D0036B1042E1BD0082E31D00C2E34
:101E80005ED145E02946206800F0F6FD20688069B3
:101E900040F00800216888612068806920F0040013
:101EA0002168886120688069296908432168886100
:101EB00047E02946206800F00FFE2068806940F462
:101EC0000060216888612068806920F48060216852
:101ED000886120688069296940EA01202168886159
:101EE0002FE02946206800F02BFE2068C06940F0F2
:101EF00008002168C8612068C06920F004002168DA
:101F0000C8612068C069296908432168C86118E070
:101F10002946206800F048FE2068C06940F400604F
:101F20002168C8612068C06920F480602168C861A8
:101F30002068C069296940EA01202168C86100E081
:101F400000BF00BF012084F83D0000BF002084F8DE
:101F50003C0000BF00BF85E710B504460CB9012066
:101F600010BD94F83D0028B9002084F83C002046BC
:101F700000F00CF8022084F83D00211D206800F0DC
:101F800003FD012084F83D000020E9E708B5016861
:101F9000B1F1804F0FD100BF0021009110490968B5
:101FA00041F001010E4A11601146096801F001017A
:101FB000009100BF13E00B4A016891420FD100BFAE
:101FC000002100910649096841F00401044A1160AA
:101FD0001146096801F00401009100BF00BF08BD6F
:101FE00040380240000800407047000070B50446C9
:101FF0000E4601223146206800F018FD0D49206888
:10200000884201D1012000E0002028B12068406C06
:1020100040F40040216848642068806800F00705AB
:10202000062D05D02068006840F001002168086096
:10203000002070BD000001407047704710B5044695
:102040000CB9012010BDA06900B100E000BF94F8F8
:10205000390028B9002084F83800204600F028F81C
:10206000242084F839002068C06820F400502168DA
:10207000C860204600F07AFE2068006920F4904095
:10208000216808612068406920F02A0021684861C1
:102090002068C06840F400502168C8600020E063F8
:1020A000202084F8390084F83A000020CAE70000B4
:1020B00010B586B00446142101A8FEF7C1F81B49EB
:1020C0002068884230D100BF002000901848006886
:1020D00040F01000164908600846006800F0100043
:1020E000009000BF00BF00BF0020009010481438CF
:1020F000006840F001000E49143908600846006885
:1021000000F00100009000BF00BF4FF4C0600190DC
:1021100002200290002003900320049007200590E5
:1021200001A90448FEF7F0F906B010BD0010014007
:1021300044380240000002402DE9F84304460D46B1
:1021400016461F464FF0000994F8390020285DD14B
:1021500005B116B90120BDE8F88300BF94F8380036
:10216000012801D10220F6E7012084F8380000BFE1
:102170000020E063212084F83900FEF7B5FA81469B
:10218000A684E68400BF002084F8380000BF2BE05E
:10219000E08C401EE084A068B0F5805F16D14B460D
:1021A000002280212046009700F0D4FF08B10320D0
:1021B000D1E7A846B8F80000C0F3080021684860DD
:1021C000206908B9AD1C0FE06D1C0DE04B460022E4
:1021D00080212046009700F0BDFF08B10320BAE738
:1021E00015F8010B21684860E08C0028D0D14B46DF
:1021F000002240212046009700F0ACFF08B10320E8
:10220000A9E7202084F839000020A4E70220A2E7F3
:1022100000BFFEE770B52DED068B05460C46204647
:10222000FEF78BF841EC1A0B9FED180B53EC102BBB
:10223000FEF711F841EC180B2846FEF77EF841EC4A
:10224000190B53EC182BFEF7A1F818D82046FEF70F
:1022500074F841EC1A0B9FED0F0B53EC102BFDF7AC
:10226000FAFF41EC180B2846FEF767F841EC190B12
:1022700053EC182BFEF772F801D8012000E0002083
:1022800006463046BDEC068B70BD00009A999999C0
:102290009999E93F333333333333F33F70B52DED41
:1022A000068B05460C462046FEF747F841EC1A0B14
:1022B0009FED180B53EC102BFDF7CDFF41EC180BE5
:1022C0002846FEF73AF841EC190B53EC182BFEF7B1
:1022D0005DF818D82046FEF730F841EC1A0B9FED58
:1022E0000F0B53EC102BFDF7B6FF41EC180B2846F3
:1022F000FEF723F841EC190B53EC182BFEF72EF8E0
:1023000001D8012000E0002006463046BDEC068BD7
:1023100070BD00009A9999999999E93F3333333305
:102320003333F33F00B587B0142102A8FDF788FFCF
:1023300000BF002001903748006840F00400354994
:1023400008600846006800F00400019000BF00BF6C
:1023500000BF002001900846006840F0800008603F
:102360000846006800F08000019000BF00BF00BF79
:10237000002001900846006840F00100086008460F
:10238000006800F00100019000BF00BF00BF002006
:1023900001900846006840F00200086008460068A6
:1023A00000F00200019000BF00BF00224FF4005176
:1023B0001948FEF793F901224FF4E8711748FEF728
:1023C0008DF9012211461648FEF788F94FF40050A6
:1023D00002900120039000200490059002A90E486D
:1023E000FEF792F84FF4E8700290012003900490F9
:1023F0000020059002A90948FEF786F80120029006
:10240000039004900020059002A90548FEF77CF88F
:1024100007B000BD30380240000802400000024012
:102420000004024000B587B01C216846FDF708FF94
:10243000154816490860182048600021134881603B
:102440006321C160002101618161FEF72DFF08B1A8
:10245000FEF745F80D48FFF77FFD08B1FEF73FF89E
:1024600060200090002001900290049000226946B4
:102470000648FFF7EDFC08B1FEF731F80348FFF717
:102480001BFB07B000BD0000004401402C020020EF
:102490001FB500200090019002900390124813494C
:1024A000086000204860002110488160C16001611F
:1024B0008161FEF7F9FE08B1FEF711F80B48FFF74E
:1024C00095F908B1FEF70BF800200090012001906B
:1024D000002002900390002269460448FFF716F995
:1024E00008B1FDF7FCFF1FBD004801406C02002051
:1024F00000B595B0002011901290139014900F9099
:1025000010901C2108A8FDF79BFE20216846FDF7CE
:1025100097FE2A482A49086063204860002128481D
:1025200081604FF6FF71C1600021016141618161ED
:10253000FEF7BAFE08B1FDF7D2FF4FF480501190BC
:1025400011A91F48FEF7BCFF08B1FDF7C8FF1C48E2
:10255000FFF7B6FB08B1FDF7C2FF00200F90109007
:102560000FA91748FEF752FE08B1FDF7B8FF30205B
:10257000089042F22830099000200A900C900D90AB
:102580000E900C2208A90E48FFF70EFB08B1FDF7CC
:10259000A6FF0020009001900290039004904FF459
:1025A000005005900020079069460548FEF7F4FDAD
:1025B00008B1FDF794FF15B000BD00000000014018
:1025C000EC00002000B589B00020079008901C2185
:1025D0006846FDF735FE4FF080401F4908606320D4
:1025E000486000211C488160C721C1600021016151
:1025F00080218161FFF7B0FC08B1FDF770FF00207A
:102600000790089007A91448FEF700FE08B1FDF7EF
:1026100066FF60200090002001900290049000224C
:1026200069460D48FFF714FC08B1FDF758FF042276
:1026300069460948FFF70CFC08B1FDF750FF0C2272
:1026400069460548FFF704FC08B1FDF748FF02485A
:10265000FFF732FA09B000BD2C01002000B58BB0A5
:1026600000200790089009900A900590069001902C
:102670000290039004902448244908606320486035
:102680000021224881604FF6FF71C1600021016185
:102690008161FEF709FE08B1FDF721FF4FF480507C
:1026A000079007A91948FEF70BFF08B1FDF717FFC0
:1026B0001648FFF79BF808B1FDF711FF00200590C1
:1026C000069005A91148FEF7A1FD08B1FDF707FF27
:1026D000002001900120029000200390049000222D
:1026E00001A90A48FFF712F808B1FDF7F8FE022029
:1026F00001900C2201A90548FFF708F808B1FDF781
:10270000EEFE0BB000BD0000000400406C01002094
:1027100000B589B00020079008901C216846FDF79D
:102720008FFD174817490860182048600021154898
:1027300081606321C160002101618161FFF70CFCB0
:1027400008B1FDF7CCFE00200790089007A90D48BE
:10275000FEF75CFD08B1FDF7C2FE6020009000208E
:10276000019002900490002269460648FFF770FB32
:1027700008B1FDF7B4FE0348FFF79EF909B000BDAC
:1027800000080040AC01002000B58BB0002007908D
:10279000089009900A90059006900190029003908D
:1027A00004902248224908601820486000212048EF
:1027B00081606321C160002101618161FEF774FDC8
:1027C00008B1FDF78CFE4FF48050079007A9184818
:1027D000FEF776FE08B1FDF782FE1548FFF706F812
:1027E00008B1FDF77CFE00200590069005A9104871
:1027F000FEF70CFD08B1FDF772FE002001900120EC
:102800000290002003900490002201A90848FEF7DE
:102810007DFF08B1FDF763FE082201A90448FEF719
:1028200075FF08B1FDF75BFE0BB000BD000C00406A
:10283000EC01002010B50B480B4908604FF4E13063
:102840004860002108488160C16001610C2141613C
:1028500000218161C161FFF7F1FB08B1FDF73FFE87
:1028600010BD0000001001407C0A002000BFFEE700
:1028700070477047704710B5FDF73CFF10BD000072
:1028800000B599B030210DA8FDF7DAFC142108A895
:10289000FDF7D6FC182102A8FDF7D2FC00BF0020EE
:1028A00001902848006840F080502649086008469A
:1028B000006800F08050019000BF00BF00BF002002
:1028C00001902148006840F440401F4908600846D4
:1028D000006800F44040019000BF00BF01200D904F
:1028E00000040E9002201390410514910C211591C3
:1028F0006021169102211791042118910DA8FEF76D
:10290000EBF908B1FDF7EBFD0F20089002200990CC
:1029100000200A904FF480500B9000200C9003216F
:1029200008A8FEF799F808B1FDF7D9FD022002903A
:102930000002069002A8FDF7B3FF08B1FDF7CFFD36
:1029400019B000BD403802400070004005480068E2
:1029500040F47000034908604FF00060014980397D
:102960000860704788ED00E010B50248FEF7D8FF18
:1029700010BD0000EC00002010B50248FEF7D0FFAB
:1029800010BD00006C01002010B50268204B984279
:102990000BD0B0F1804F08D01E4B984205D01E4B93
:1029A000984202D01D4B984203D122F070024B682E
:1029B0001A43174B984214D0B0F1804F11D0154BE9
:1029C00098420ED0144B98420BD0144B984208D02A
:1029D000134B984205D0134B984202D0124B9842A9
:1029E00003D122F44072CB681A4322F080034C6971
:1029F00043EA040202608B68C3620B688362044B83
:102A0000984201D10B6903630123436110BD0000AB
:102A1000000001400004004000080040000C00409D
:102A200000400140004401400048014030B501F041
:102A30001F05012404FA05F3046A9C430462046A36
:102A400001F01F0502FA05F52C43046230BD30B5D4
:102A50000C46816821F47F4142EA0325254329433E
:102A6000816030BD0A46816821F0700142F00703A1
:102A7000194381607047000030B5056A25F00105F3
:102A80000562026A4368846924F0700424F0030438
:102A90000D682C4322F002028D682A430D4DA84296
:102AA00006D100BF22F00802CD682A4322F00402BA
:102AB000084DA84207D123F4807323F400734D69B5
:102AC0002B438D692B43436084614D6845630262EB
:102AD00030BD00000000014030B5056A25F010054A
:102AE0000562026A4368846924F4E04424F4407473
:102AF0000D6844EA052422F020028D6842EA05129E
:102B00000E4DA84207D100BF22F08002CD6842EAF4
:102B1000051222F04002094DA84209D123F4806336
:102B200023F400634D6943EA85038D6943EA850315
:102B3000436084614D688563026230BD00000140DE
:102B400030B5056A25F480750562026A4368C46978
:102B500024F0700424F003040D682C4322F4007266
:102B60008D6842EA05220F4DA84207D100BF22F42A
:102B70000062CD6842EA052222F48062094DA84233
:102B800009D123F4805323F400534D6943EA05131C
:102B90008D6943EA05134360C4614D68C5630262F1
:102BA00030BD00000000014030B5056A25F48055B5
:102BB0000562036A4468C26922F4E04222F440726A
:102BC0000D6842EA052223F400538D6843EA053379
:102BD000064DA84204D124F480444D6944EA85148A
:102BE0004460C2614D680564036230BD000001406D
:102BF00030B50B461446026A056A25F001050562E8
:102C0000816921F0F00141EA041122F00A021A431D
:102C10008161026230BD000070B50C461546066A3F
:102C200026F0010606628169026A154EB0420ED096
:102C3000B0F1804F0BD0134EB04208D0124EB042CC
:102C400005D0124EB04202D0114EB04201D1012641
:102C500000E000261EB121F00301294301E041F00C
:102C6000010121F0F001F02606EA0316314322F0BB
:102C70000A0204F00A0632438161026270BD00005C
:102C8000000001400004004000080040000C00402B
:102C90000040014030B50B461446056A25F010058A
:102CA00005628169026A21F4704141EA043122F02F
:102CB000A00242EA03128161026230BD70B50C4687
:102CC0001546066A26F0100606628169026A21F43A
:102CD000407141EA052121F470414FF4704606EA43
:102CE0000336314322F0A002A02606EA041632433E
:102CF0008161026270BD70B50C461546066A26F405
:102D000080760662C169026A21F00301294321F03D
:102D1000F001F02606EA0316314322F420624FF454
:102D2000206606EA04263243C161026270BD70B5B6
:102D30000C461546066A26F480560662C169026A88
:102D400021F4407141EA052121F470414FF47046AD
:102D500006EA0336314322F420424FF4204606EAC5
:102D600004363243C161026270BD00002DE9F84FA4
:102D700004462068006920F44050E1680843216857
:102D800008612169A068084361690843E169084353
:102D900000902068C06849F20C618843009908439C
:102DA0002168C8602068406920F44070A169084328
:102DB00021684861E069B0F5004F75D1E3492068AA
:102DC000884203D0E249206888426FD1FDF71CFF9A
:102DD000814602206168A0FB01510B461920A9FB26
:102DE00000712A463846FDF7F3F96421B0FBF1F093
:102DF0004FEA001A02206168A0FB01510B4619201E
:102E0000A9FB00712A463846FDF7E2F90746022081
:102E10006168A0FB01510B461920A9FB00B12A46AD
:102E20005846FDF7D5F96421B0FBF1F000EBC00185
:102E300001EB0010A7EB8000322101EBC000642100
:102E4000B0FBF1F000F0F8000AEB400A02206168E4
:102E5000A0FB01510B461920A9FB00712A463846F8
:102E6000FDF7B6F9074602206168A0FB01510B4649
:102E70001920A9FB00B12A465846FDF7A9F964219B
:102E8000B0FBF1F000EBC00101EB0010A7EB8000FC
:102E9000322101EBC0006421B0FBF1F000F007002B
:102EA0005044216888604FE16EE0FFE7FDF79CFE2B
:102EB000814602206168A0FB01510B461920A9FB45
:102EC00000712A463846FDF783F96421B0FBF1F022
:102ED0004FEA001A02206168A0FB01510B4619203D
:102EE000A9FB00712A463846FDF772F90746022011
:102EF0006168A0FB01510B461920A9FB00B12A46CD
:102F00005846FDF765F96421B0FBF1F000EBC00114
:102F100001EB0010A7EB8000322101EBC00064211F
:102F2000B0FBF1F000F0F8000AEB400A0220616803
:102F3000A0FB01510B461920A9FB00712A46384617
:102F4000FDF746F9074602206168A0FB01500346E1
:102F50001920A9FB00B12A465846FDF739F964212A
:102F6000B0FBF1F000EBC00101EB0010A7EB80001B
:102F7000322101EBC0006421B0FBF1F000F007004A
:102F8000504421688860DFE070492068884203D09F
:102F90006F49206888426BD1FDF736FE81460420D8
:102FA0006168A0FB01510B461920A9FB00712A465C
:102FB0003846FDF70DF9824604206168A0FB0151F7
:102FC0000B461920A9FB00712A463846FDF700F987
:102FD0006421B0FBF1F000EBC00101EB0010AAEBA3
:102FE0008000322101EB00106421B0FBF1F000F011
:102FF000F00A04206168A0FB015003461920A9FBD8
:1030000000712A463846FDF7E3F86421B0FBF1F081
:103010000AEB001A04206168A0FB01510B4619203D
:10302000A9FB00712A463846FDF7D2F8074604206E
:103030006168A0FB015003461920A9FB00B12A4694
:103040005846FDF7C5F86421B0FBF1F000EBC00174
:1030500001EB0010A7EB8000322101EB001064218E
:10306000B0FBF1F000F00F005044216888606BE085
:10307000FDF7BAFD814604206168A0FB01500346BC
:103080001920A9FB00712A463846FDF7A1F88246AF
:1030900004206168A0FB015003461920A9FB0071C0
:1030A0002A463846FDF794F86421B0FBF1F000EBB6
:1030B000C00101EB0010AAEB8000322101EB0010EF
:1030C0006421B0FBF1F000F0F00A04206168A0FB7D
:1030D000015003461920A9FB00712A463846FDF726
:1030E00077F86421B0FBF1F00AEB001A0420616864
:1030F000A0FB017003461920A9FB005001463A4687
:103100002846FDF765F8074604206168A0FB0150DA
:1031100003461920A9FB00B12A465846FDF758F886
:103120006421B0FBF1F000EBC00101EB0010A7EB54
:103130008000322101EB00106421B0FBF1F000F0BF
:103140000F00504421688860BDE8F88F00100140EE
:10315000001401402DE9F04104460D4617469846FB
:10316000069E21E0701CF8B12EB1FDF7BDFAA0EB70
:103170000800B04218D92068C06820F4D0702168D7
:10318000C8602068406920F0010021684861202063
:1031900084F8390084F83A0000BF002084F8380031
:1031A00000BF0320BDE8F081206800682840A842E5
:1031B00001D1012000E00020B842D3D00020F1E787
:1031C00000BFFEE70FB4054B10B503A9044A0298EF
:1031D00000F034F810BC5DF814FB0000FD3400086A
:1031E000E800002002480068C0F302207047000099
:1031F0000CED00E010B5002804DB0A07130E054AA9
:10320000135406E00A07140E034A00F00F031B1FB5
:10321000D45410BD00E400E018ED00E002E008C85E
:10322000121F08C1002AFAD170477047002001E040
:1032300001C1121F002AFBD1704700002DE9FF4F8A
:103240008DB09B460F460446002606E025280BD08D
:103250005A460F999047641C761C20780028F5D1B7
:1032600011B03046BDE8F08F0025A84601229849EC
:1032700000E0054314F8013F203B02FA03F0084246
:10328000F7D120782E2817D114F8010F45F0040546
:103290002A280ED06FF02F022078A0F130010929E2
:1032A0000AD808EB880102EB410100EB0108641C1D
:1032B000F2E757F8048B641C20786C280DD004DCEE
:1032C0004C2812D06A2811D104E074280DD07A2835
:1032D0000CD10AE045F4001507E0617845F480154B
:1032E000814202D1641C05F58015641C2278692A8C
:1032F00045D008DC002AB3D0582A69D0632A10D000
:10330000642A08D13BE0702A67D0732A13D0752A4B
:103310005CD0782A5CD010465A460F999047761CAC
:10332000D3E017F8040B8DF8000000208DF80100A1
:10333000E946012003E057F8049B4FF0FF3069078E
:103340004FF0000501D40AE06D1C45450DDA8542B9
:10335000FADB19F805100029F6D106E06D1C85424C
:10336000FCDB19F805100029F8D12E4404E019F807
:10337000010B5A460F9990476D1EF8D2A5E00A201E
:103380000021CDE90801C5F3025002280DD001CF7C
:10339000C117031E71F100030DDA4FF0000CD0EBE2
:1033A0000C006CEB01012D2308E0FF1D27F007073F
:1033B000F7E80201EDE72B0504D52B238DF8283023
:1033C00001233BE0EB0739D02023F7E70A2000E098
:1033D00010200021CDE9080107E01020002145F070
:1033E0000405CDE908014FF00808C5F30250022892
:1033F0000FD001CF00214FF0000A2B071FD5702AF4
:103400000DD0DDE908C38CF0100C5CEA030C0CD085
:1034100015E0FF1D27F00707F7E80201EBE7402260
:103420008DF828204FF0010A0BE050EA010306D086
:1034300030238DF828308DF8292002239A46582A07
:1034400004D024A20DF120090B9209E026A2F9E78D
:10345000DDE90823FCF7BCFE0B9B9B5C09F8013DF2
:1034600050EA0102F4D1ADEB090020300890680762
:1034700001D44FF001080899884502DDA8EB01004E
:1034800000E000208046002506E00AA85A46405D7C
:103490000F9990476D1C761C5545F6DB04E03020F3
:1034A0005A460F999047761CB8F10001A8F101081F
:1034B000F5DC05E019F8010B5A460F999047761C88
:1034C0000899481E08900029F4DC641CC5E6000039
:1034D00009280100303132333435363738396162EA
:1034E00063646566000000003031323334353637AE
:1034F00038394142434445460000000038B504468F
:103500000D46E0B200900223012269460248FEF710
:1035100013FE204638BD00007C0A002098B000242D
:10352000202110A8FCF78CFE00273C2101A8FCF705
:1035300087FE00BF00250026FDF7E8F8FFF7A0F999
:10354000FEF7F0FEFFF78AF8FFF71EF9FEF76AFFB5
:10355000FEF79EFFFFF76EF9FFF7DAF8FFF732F894
:10356000FEF7C6FFFF23062286A18848FEF7E4FD8A
:103570004FF49670FCF7B4FF85480078B8B100218D
:103580008448FEF733FD04218248FEF72FFD0C210D
:103590008048FEF72BFD00217F48FEF727FD0C2118
:1035A0007E48FEF7A9FB0C217D48FEF73AF9E8E0DA
:1035B0007748007838B90C217948FEF732F90C21A8
:1035C0007648FEF799FB00224FF400517548FDF74D
:1035D00085F8002210217448FDF780F80022402170
:1035E0007148FDF77BF800224FF480716E48FDF7BB
:1035F00075F8002280216C48FDF770F80022012147
:103600006A48FDF76BF83220FCF76AFF012251038C
:103610006448FDF763F8012210216348FDF75EF866
:10362000012240216048FDF759F8012211025E484D
:10363000FDF754F8012280215B48FDF74FF8012285
:1036400011465A48FDF74AF84FF49670FCF748FFC8
:10365000574800780028AAD00C215148FEF71DF9E0
:103660000020534908705348006844F6206188429E
:103670009DD95148018851A0FFF7A4FD00270024DF
:103680000CE04C4850F82400B0F5FA7F04D910A89B
:1036900020F81740781C87B2601C84B24648008826
:1036A0008442EEDB0D2F03D04CA0FFF78BFD68E0CA
:1036B000002420E010A9601C31F8100031F814102B
:1036C000401A00EBC00101EB00104FF6FF7101EA58
:1036D000C000610001AA22F8110010A9601C31F895
:1036E0001000344931F8200081B26000401C22F8FB
:1036F0001010601C84B20D2CDCDB29466A1C95B2CC
:1037000001AA32F811004FF41661FEF783FD10B9DB
:1037100038A0FFF757FD28E029466A1C95B201AA98
:1037200032F811004FF41671FEF7B8FD00B91FE032
:1037300001A931F815004FF49661FEF76BFD20B139
:10374000012000EB460086B20DE001A931F815001A
:103750004FF41671FEF75EFD20B1002040EA4600EE
:1037600086B200E004E0681C85B2681C1928D3DB2F
:1037700000BF002040EA460086B2314621A0FFF794
:1037800021FD15E768656C6C6F0000007C0A002065
:10379000000000202C010020AC010020EC000020E3
:1037A0006C010020000802400000024000040240BA
:1037B000C4000020AC020020C2000020726563201B
:1037C00064617461206672616D652C636F756E74DF
:1037D0002069732025640D0A000000006461746193
:1037E0002069732077726F6E6721212121212121A9
:1037F0000D0A000064617461206572726F720D0AB7
:103800000000000069725F64617461206973203098
:103810007825780000000000000000000102030489
:103820000607080900000000010203044C380008E4
:1038300000000020EC0000001C32000838390008AD
:10384000EC000020D41100002C32000801002823D5
:10385000A00F30023002300230023002300230025B
:1038600030023002300230023002300230023002C8
:10387000300230029006300290063002900630028C
:103880009006300290063002900630029006300218
:103890009006300290063002900630029006300208
:1038A00090063002900630029006300290063002F8
:1038B0009006300230023002300230023002300214
:1038C0003002300230023002300230023002300268
:1038D0003002300250C33200881360095802B0042D
:1038E000580258025802B004580258025802B00454
:1038F00058025802580258025802B004580258029E
:10390000580258025802580258025802000000009B
:1039100000000000000000000000000000000000A7
:103920000000000000000000100000000100000086
:083930000024F4000000000077
:040000050800019955
:00000001FF
